:020000040800F2
:1000000000000420F965000865070008670700087C
:10001000690700086B0700086D0700080000000072
:100020000000000000000000000000006F07000852
:10003000710700080000000073070008750700083A
:1000400049660008496600084966000849660008D4
:1000500049660008496600084966000849660008C4
:1000600049660008496600084966000849660008B4
:1000700049660008496600084966000849660008A4
:100080004966000849660008496600084966000894
:100090004966000849660008496600084966000884
:1000A0004966000849660008496600084966000874
:1000B0004966000849660008496600084966000864
:1000C0004966000849660008496600084966000854
:1000D0004966000849660008496600084966000844
:1000E0004966000849660008496600084966000834
:1000F0004966000849660008496600084966000824
:1001000000000000496600084966000849660008CA
:100110000000000000000000496600084966000871
:1001200049660008496600087D070008496600081E
:1001300049660008496600084966000849660008E3
:100140004966000849660008496600088D070008EE
:1001500049660008496600084966000849660008C3
:100160004966000849660008000000000000000021
:10017000000000000000000000000000000000007F
:100180004966000849660008000000000000000001
:1001900049660008496600080000000000000000F1
:1001A000000000000000000000000000000000004F
:1001B00049660008000000000000000049660008D1
:0401C0004966000884
:1001C40053B94AB9002908BF00281CBF4FF0FF31BA
:1001D4004FF0FF3000F00CB8ADF1080C6DE904CE1F
:1001E40006F05EFADDF804E0DDE9022304B07047AE
:1001F400704700BF0348044B834202D0034B03B152
:1002040018477047500100205001002000000000F2
:100214000548064B1B1AD90F01EBA301491002D064
:10022400034B03B1184770475001002050010020D0
:100234000000000010B5064C237843B9FFF7DAFF3D
:10024400044B13B10448AFF300800123237010BDA5
:1002540050010020000000006069000808B5054B4B
:100264001BB105490548AFF30080BDE80840FFF71E
:10027400CFBF00BF000000005401002060690008E7
:100284002DE9F0438BB00024059406940794089458
:1002940009940094444B1A6B42F004021A631A6BDB
:1002A40002F004020092009A01941A6B42F0800258
:1002B4001A631A6B02F080020192019A02941A6B7B
:1002C40042F001021A631A6B02F001020292029ACE
:1002D40003941A6B42F002021A631A6B02F00202D0
:1002E4000392039A04941A6B42F008021A631B6B7C
:1002F40003F008030493049B2C4F224641F68B31F0
:10030400384603F0BFF92A4E22464FF48071304636
:1003140003F0B8F9DFF89C9022460421484603F024
:10032400B1F9DFF8948022469021404603F0AAF9FF
:100334004FF4015305930694079405A9384603F036
:10034400C3F841F68B330593012506950794089469
:1003540005A9384603F0B8F84FF480730593069561
:100364000794089405A9304603F0AEF84FF400430F
:1003740005930694079405A9304603F0A5F80423D1
:10038400059306950794089405A9484603F09CF83C
:100394009023059306950794089405A9404603F015
:1003A40093F80BB0BDE8F083003802400008024027
:1003B40000000240000C02400004024000B583B07B
:1003C40000210191094B1A6B42F480021A631B6BE2
:1003D40003F480030193019B0A463A2003F05CFB7B
:1003E4003A2003F069FB03B05DF804FB00380240D7
:1003F40072B6FEE708B50C480C4B03601523436046
:1004040000238360C3604FF480320261436103764A
:1004140043768376C3760377437703F065FD00B9AB
:1004240008BDFFF7E5FF00BFA00300200064004003
:1004340000B587B0002301930293039304930593BB
:1004440000931A481A4A026043607F228260FF22A6
:10045400C26003614361836103F01BFF00BB00239F
:100464008DF804308DF805308DF80630049305932B
:10047400012201A90D4803F05FFF98B901228DF80C
:1004840000208DF801208DF8022000238DF8033020
:100494006946064803F0B0FF30B907B05DF804FBC5
:1004A400FFF7A6FFFFF7A4FFFFF7A2FF0403002056
:1004B4000028004008B50D480D4B03604FF48273CB
:1004C400436000238360C360036143614FF480226F
:1004D4008261C3610362436283620A23C36203F0DD
:1004E400D9FF00B908BDFFF783FF00BFAC020020AD
:1004F4000030014000B585B00023009301930293BE
:1005040003931448144A02604FF4803242608360BB
:100514000361037680F82030C362104A8262C360AC
:100524000122C26180F83030426103F0E7FB60B918
:10053400002300930122019202936946054803F0C7
:1005440009FC20B905B05DF804FBFFF751FFFFF784
:100554004FFF00BFC8030020002001400100000F2E
:1005640008B50B480B4B03601023436000238360E2
:10057400C36003614361037643768376C37603776E
:10058400437703F0B1FC00B908BDFFF731FF00BFAA
:10059400780300200068004008B50D480D4B036047
:1005A4004FF48273436000238360C360036143613B
:1005B4004FF480228261C3610362436283620A232F
:1005C400C36203F067FF00B908BDFFF711FF00BF66
:1005D400540200200038004008B50A480A4B036062
:1005E4004FF4E133436000218160C16001610C2359
:1005F40043618161C16104F064F800B908BDFFF78B
:10060400F7FE00BFB00100200010014008B50A4801
:100614000A4B03604FF4E133436000238360C360FB
:1006240003610C2242618361C36104F01BF800B9C9
:1006340008BDFFF7DDFE00BF6C010020004800404C
:1006440008B50A480A4B03600A4B436000238360E1
:10065400C3604FF48042026143618361C3610362FA
:1006640003F0E8FC00B908BDFFF7C2FE2403002034
:1006740000580040A086010000B595B03422002146
:1006840007A805F0E0FF0023029303930493059366
:1006940006930093204A116C41F080511164126C4E
:1006A40002F080520092009A01931C4B1A6842F4A3
:1006B40040421A601B6803F440430193019B0523E5
:1006C40007934FF4803308930123099302230D9376
:1006D4004FF480020E9204220F92A82110911192DD
:1006E40007221292139307A802F0E6FC80B90F23A5
:1006F400029302210391002304934FF48052059244
:10070400069302A802F0A6FA20B915B05DF804FB1E
:10071400FFF76EFEFFF76CFE0038024000700040E9
:1007240008B503F011FAFFF7A7FFFFF7A9FDFFF7DC
:1007340045FEFFF75FFEFFF77BFEFFF7BBFE00F011
:100744008DFA00F099FAFFF7D5FEFFF709FFFFF7DE
:1007540023FFFFF741FFFFF759FFFFF771FFFEE7A4
:10076400FEE7FEE7FEE7FEE7FEE7704770477047E7
:1007740008B503F003FA08BD08B5024803F058F8B9
:1007840008BD00BFF401002008B5024801F054F888
:1007940008BD00BF700B002082B0002100910B4BFC
:1007A4005A6C42F480425A645A6C02F480420092B9
:1007B400009A01911A6C42F080521A641B6C03F087
:1007C40080530193019B02B0704700BF0038024080
:1007D40030B58BB0002305930693079308930993D0
:1007E400026803F1804303F590339A4201D00BB0C1
:1007F40030BD0024019403F58C335A6C42F48072AA
:100804005A645A6C02F480720192019A02941A6B2F
:1008140042F004021A631A6B02F004020292029A72
:1008240003941A6B42F001021A631A6B02F001027C
:100834000392039A04941A6B42F002021A631B6B2C
:1008440003F002030493049B1423059303250695E4
:100854000DEB0301094802F037FE0F2305930695BB
:10086400079405A9064802F02FFE059506950794FE
:1008740005A9044802F028FEB9E700BF00080240B9
:10088400000002400004024000B58BB00023059331
:1008940006930793089309930368364A934205D055
:1008A400354A93422FD00BB05DF804FB334A1368EA
:1008B40001331360012B19D000230193304B1A6BC1
:1008C40042F002021A631B6B03F002030193019BC3
:1008D4004FF44073059302230693032308930823DC
:1008E400099305A9274802F0EFFDDCE700230093F4
:1008F400234B1A6C42F000721A641B6C03F00073F1
:100904000093009BD8E71D4A136801331360012B41
:1009140022D0002103911A4B1A6C42F080621A64AF
:100924001A6C02F080620392039A04911A6B42F0EB
:1009340002021A631B6B03F002030493049B6023FB
:10094400059302230693032308930923099305A916
:100954000C4802F0B9FDA6E700230293084B1A6C79
:1009640042F000721A641B6C03F000730293029B42
:10097400CFE700BF0064004000680040100400207E
:1009840000380240000402402DE9F04188B0002301
:100994000393049305930693079302681C4B9A42AE
:1009A40002D008B0BDE8F08100250195194C236BF5
:1009B40043F002032363236B03F002030193019BBF
:1009C4004FF4806303934FF01208CDF8108003278F
:1009D400069704230793104E03A9304602F074FDD2
:1009E40008230393CDF810800595069709230793F0
:1009F40003A9304602F068FD0295236C43F480039A
:100A04002364236C03F480030293029BC9E700BFB1
:100A140000580040003802400004024010B590B075
:100A240004463C22002101A805F00DFE22680B4B70
:100A34009A4201D010B010BD082301934FF4807383
:100A4400089301A802F0DCF920B9054B0122C3F890
:100A54003C2EEFE7FFF7CCFCF7E700BF002800408F
:100A64000000474230B58BB00023059306930793EB
:100A7400089309930368354A934204D0344A934255
:100A84003FD00BB030BD044600250195314B5A6C64
:100A940042F480525A645A6C02F480520192019AD0
:100AA40002951A6B42F001021A631B6B03F00103F7
:100AB4000293029BB0230593022306930323089316
:100AC4000523099305A9244802F0FEFC2348244B7E
:100AD40003604FF08063436040238360C5604FF43C
:100AE4008063036145618561C5610562456202F009
:100AF40039FE18B9194BA3649C63C2E7FFF778FC6D
:100B0400F8E700210391134B1A6C42F480421A64F3
:100B14001A6C02F480420392039A04911A6B42F015
:100B240002021A631B6B03F002030493049B4FF449
:100B34007043059302230693032308930523099323
:100B440005A9084802F0C0FC9BE700BF0030014043
:100B5400003800400038024000000240F401002048
:100B6400406402400004024000B58BB000230593AA
:100B740006930793089309930368284A934205D080
:100B8400274A934226D00BB05DF804FB0021019163
:100B9400244B5A6C42F010025A645A6C02F0100250
:100BA4000192019A02911A6B42F001021A631B6BC3
:100BB40003F001030293029B4FF4C06305930223E5
:100BC4000693032308930723099305A9164802F003
:100BD4007BFCD8E700210391124B1A6C42F480226B
:100BE4001A641A6C02F480220392039A04911A6B19
:100BF40042F004021A631B6B03F004030493049B86
:100C04004FF4846305930223069303230893072375
:100C1400099305A9054802F057FCB4E70010014008
:100C24000048004000380240000002400008024032
:100C3400024B01221A701878704700BF140000207C
:100C4400024B01221A701878704700BF140000206C
:100C540000207047002070470120704708B5034901
:100C6400034803F0A3FD034B187008BD14040020CF
:100C7400000000201804002008B500220F49104885
:100C840003F099FD70B90F490D4803F0ABFD60B94D
:100C94000D490B4804F012FD50B9094803F0BCFD9E
:100CA40048B908BDFFF7A4FBEDE7FFF7A1FBEFE7A9
:100CB400FFF79EFBF1E7FFF79BFBF2E758000020EC
:100CC4001C040020D40000207800002012230B8094
:100CD400004870474400002004230B8000487047FC
:100CE400340000200C230B8000487047380000209B
:100CF400002393421ED200B510E00CF1370C01F82A
:100D040013C000014FEA430C0CF1010C4FF0000E2C
:100D140001F80CE00133DBB2934209D24FEA107CB4
:100D2400B0F1204FE9D20CF1300C01F813C0E8E720
:100D34005DF804FB7047000038B50B4BD3F8100A7C
:100D4400D3F8144AD3F8183AC01800D138BD074D67
:100D540008222946FFF7CCFF042205F110012046A2
:100D6400FFF7C6FFF2E700BF0070FF1F1A00002064
:100D740008B51A230B80FFF7DFFF014808BD00BF49
:100D84001800002008B50A4628B90549054804F0AA
:100D9400A0FA034808BD0249024804F09AFAF8E7A9
:100DA400F80600207869000810B50A46034C21466D
:100DB400034804F08EFA204610BD00BFF806002058
:100DC4008C69000808B50A4628B90549054804F0A5
:100DD40080FA034808BD0249024804F07AFAF8E7A9
:100DE400F8060020A069000808B50A4628B9054994
:100DF400054804F06EFA034808BD0249024804F0AD
:100E040068FAF8E7F8060020AC690008002070478B
:100E14004FF480330B604FF400731380002070474D
:100E24000020704700207047002070470020704762
:100E34000020704730B597B00446002111911291FB
:100E44001391149115913C2202A805F0FCFB236830
:100E5400B3F1A04F01D017B030BD2023029302A8F4
:100E640001F0CEFF002830D100250095184C236BEB
:100E740043F001032363236B03F001030093009BFE
:100E84004FF4C05311930223129313950323149325
:100E94000A23159311A90F4802F016FB636B43F064
:100EA400800363630195636C43F480436364636C00
:100EB40003F480430193019B2A462946432002F010
:100EC400EBFD432002F0F8FDC5E7FFF791FACBE70D
:100ED400003802400000024008B500F2C441D0F8D6
:100EE400080503F0AFFC08BD08B501EBC10300EB36
:100EF4008303D3F88C22D0F8080503F070FD08BDF5
:100F040008B501EBC10300EB8303DA6CD0F80805E4
:100F140003F0C8FD08BD08B5D0F8080503F00AFDC4
:100F240008BD10B50446C368022B09D10121D4F8C9
:100F3400080503F0E5FCD4F8080503F0AFFC10BD88
:100F4400FFF756FAF2E7000010B50446D0F808059A
:100F540003F0D9FC2268D2F8003E43F00103C2F842
:100F6400003E236A23B1034A136943F00603136165
:100F740010BD00BF00ED00E008B5D0F8080503F08F
:100F8400CCFC08BD08B5D0F8080503F0FBFC08BD8F
:100F940008B5D0F8080503F0DEFC08BD08B5D0F8A4
:100FA400080503F006FD08BD08B5D0F8080503F0F0
:100FB40002FD08BD02780AB10020704710B503464F
:100FC4001548C0F80835C3F8C8024FF0A0430360C1
:100FD400062343600222C260002303618261C3616D
:100FE400036243628362C362036300F029F980B938
:100FF400094C8021204600F064FF40220021204655
:1010040000F039FF80220121204600F034FF002047
:1010140010BDFFF7EDF9EBE7700B0020D0F8C832F4
:1010240011F0800F08D101F07F0101EBC10103EB46
:10103400810393F87E02704701F07F0101EBC10147
:1010440003EB810393F83E00704708B5D0F8C8025B
:1010540000F021FB08BD000010B5044611B10129C0
:1010640016D010BD036A5BB92268D2F8003E23F0A3
:101074000103C2F8003ED4F8080503F04EFCF0E783
:10108400FFF7FAFA0C4A136923F006031361EBE73E
:101094000268D2F8003E43F00103C2F8003ED0F8E3
:1010A400080503F030FC236A002BDAD0024A1369E6
:1010B40043F006031361D4E700ED00E000487047F5
:1010C400F80800207047032805D8DFE800F005047D
:1010D4000205012070470320704708B5D0F8C80204
:1010E40000F04CF9FFF7EFFF08BD08B594461A4627
:1010F4006346D0F8C80200F021FAFFF7E4FF08BD08
:1011040008B5D0F8C80200F05EFAFFF7DCFF08BDAE
:1011140008B5D0F8C80200F093FEFFF7D4FF08BD6D
:1011240008B5D0F8C80200F0EEFAFFF7CCFF08BD0E
:1011340008B5D0F8C80200F02AFBFFF7C4FF08BDC9
:1011440008B5D0F8C80200F0E5F9FFF7BCFF08BD08
:1011540008B5D0F8C80200F0A7FAFFF7B4FF08BD3D
:1011640008B5D0F8C80200F067FAFFF7ACFF08BD75
:101174002DE9F04383B0D0F8008001EBC10300EB0C
:101184008303DA6D5B6D9A4254D807460C469B1A6A
:1011940001EBC10200EB8202926C9A4200D31A4620
:1011A40002F103094FEA990915E006F103094FEA30
:1011B400990904EBC40507EB8505E96C3B7C0093B6
:1011C400B3B2E2B2404601F058FAEB6C3344EB643C
:1011D400EB6D3344EB6508EB441303F510639B6933
:1011E4009BB24B4512D304EBC40307EB8303DA6DC4
:1011F4005B6D9A420AD24BB19B1A04EBC40207EB13
:101204008202966C9E42D0D31E46CEE704EBC40302
:1012140007EB83077A6DFB6D9A420FD804F00F0435
:101224000122A240D8F8343823EA0203C8F834383B
:10123400002000E0012003B0BDE8F0830020FAE7BD
:1012440070B58AB0002800F097800546046890F8CD
:10125400BD343BB3032385F8BD34E36B13F4807FC3
:1012640001D100232B61286800F028FF2C4654F894
:10127400106BEC460FCCACE80F000FCCACE80F00C1
:1012840094E803008CE803002B1D0ECB304600F0DD
:1012940057FE044658B1022385F8BD340124204684
:1012A4000AB070BD80F8BC34FFF7C4FDD2E700215A
:1012B400286801F0F0FB234616E003EBC30205EBBC
:1012C4008202012182F83D1082F83C30A2F84430B9
:1012D400002182F840109164D16403EBC30205EB52
:1012E400820251650133DBB269688B42E5D316E0B3
:1012F40004EBC40305EB8303002283F87D2283F807
:101304007C4283F88022C3F88822C3F88C2204EB41
:10131400C40305EB8303C3F894220134E4B2A1426D
:10132400E6D82C4654F8106BEC460FCCACE80F0012
:101334000FCCACE80F0094E803008CE803002B1DED
:101344000ECB304600F016FF044660B9002385F842
:101354003830012385F8BD346B6A012B08D0286826
:1013640001F058FB9BE7022385F8BD34012496E77E
:10137400284600F0AAFDF2E7012490E7026890F8FD
:10138400BC34012B19D010B50446012380F8BC34B9
:10139400836A012B09D0206800F08AFE206801F0DE
:1013A4002BFB002084F8BC0410BD8369012BF2D010
:1013B400936B43F480339363EDE70220704700009E
:1013C40070B504460D460068066C00EB411303F546
:1013D40030639A682169012911D038498E4256D068
:1013E4003DB905EBC50304EB8303D3F89432002B1A
:1013F4005ED0E9B22046FFF777FD002070BD12F001
:10140400080F09D02E498E42F7D912F4004FF4D0B8
:101414004FF400429A60F0E712F0200F02D020222D
:101424009A60EAE712F0280FE7D125498E4206D9DF
:1014340012F4004F03D04FF400429A60DDE705EB4D
:10144400C50204EB8202D2F898121B69C3F312039B
:10145400CB1AC2F89C327DB905EBC50204EB8202BB
:10146400D2F894226AB105EBC50204EB8202D2F8E9
:101474008C121944C2F88C12E9B22046FFF734FDED
:10148400BBE704F2C442012101F046FBF4E712F485
:10149400004F03D04FF400429A60AEE712F0200FE1
:1014A40001D020229A60E9B22046FFF71DFDA4E78F
:1014B40004F2C442002101F02FFB9AE70A31544F91
:1014C4000A30544F38B5044603681D6C03EB4113CE
:1014D400D3F8081B0E4A954207D903F5306311F47B
:1014E400004F02D04FF400429A602046FFF7F4FC0C
:1014F400074B9D4202D92369012B01D0002038BD3E
:1015040004F2C4420121206801F006FBF6E700BFA3
:101514000A30544F90F8BC34012B0DD010B504465A
:10152400012380F8BC3480F83810006801F054FAC4
:10153400002084F8BC0410BD0220704738B505466D
:101544008C4611F0800F29D101F00F0E0EEBCE0462
:10155400A40004F51E740444211D0EEBCE0E00EB12
:101564008E0E00208EF87D020CF00F0C81F800C066
:10157400CA600B714A780AB1A1F808C0022B1DD0C9
:1015840095F8BC34012B1CD0012385F8BC342868A1
:1015940000F0C5FE002085F8BC0438BD01F00F0042
:1015A40000EBC001890038312944043100EBC0004C
:1015B40005EB8000012480F83D40D5E700234B7102
:1015C400DEE70220E9E710B504460A4611F0800F71
:1015D40020D101F00F0000EBC0039B0003F51E7344
:1015E4002344191D00EBC00004EB8000002380F8A5
:1015F4007D3202F00F020A7094F8BC34012B19D02A
:10160400012384F8BC34206800F0D6FE002084F85E
:10161400BC0410BD01F00F0000EBC0039B00383385
:101624002344191D00EBC00004EB8000012380F863
:101634003D30DEE70220ECE710B501F00F0404EBC7
:10164400C401890001F51E710144043104EBC40C8A
:1016540000EB8C0CCCF88C22CCF894320023CCF820
:101664009C328CF87D328CF87C420369012B06D0C5
:1016740064B9DAB2006800F00FFF002010BD04EB7B
:10168400C40C00EB8C0CCCF89022F1E7DAB20068C1
:1016940001F00AF8F1E701F00F0101EBC10100EBE1
:1016A4008100D0F89C02704710B501F00F0404EBE0
:1016B400C401890038310144043104EBC40C00EB4B
:1016C4008C0CCCF84C20CCF854300023CCF85C3093
:1016D40001238CF83D308CF83C400369012B06D083
:1016E40064B9DAB2006800F0D7FE002010BD04EB44
:1016F400C40C00EB8C0CCCF85020F1E7DAB2006893
:1017040000F0D2FFF1E738B501F00F0542689542C9
:1017140039D804460B4611F0800F1FD101EBC101EB
:10172400890001F51E710144043103EBC30300EB8E
:101734008303002283F87D2201238B700D7094F8BB
:10174400BC34012B21D0012384F8BC34206801F07F
:10175400E8F88DB1002084F8BC0438BD05EBC50160
:10176400890038310144043105EBC50300EB8303E0
:10177400012283F83D20DFE704F2C442217C206883
:1017840001F0CAF9E6E70120E7E70220E5E701F006
:101794000F034268934231D810B5044611F0800F0C
:1017A4001ED103EBC301890001F51E71014404310C
:1017B40003EBC30200EB8202002082F87D020022C8
:1017C4008A700B7094F8BC34012B19D0012384F86F
:1017D400BC34206801F0D2F8002084F8BC0410BDA9
:1017E40003EBC301890038310144043103EBC30224
:1017F40000EB8202012082F83D00E0E701207047FF
:101804000220ECE708B511F0800F0CD101F00F01B4
:1018140001EBC101890001F51E7101440431006826
:1018240000F0CCFE08BD01F00F0101EBC1018900FD
:10183400383101440431F2E72DE9F04F83B0044616
:101844000568284601F023F910B103B0BDE8F08F14
:101854000646206801F0ECF80028F6D005F500678C
:10186400BB68C3F30D23C4F8FC34206801F0E0F82E
:1018740010F0020F04D02268536903F0020353618D
:10188400206801F0D5F810F0100F14D02268936985
:1018940023F010039361D5F8208008F00F09C8F3F2
:1018A4004343022B69D0062B00F08D802268936994
:1018B40043F010039361206801F0BAF810F4002F8C
:1018C40040F09380206801F0B3F810F4802F40F0CA
:1018D400FC80206801F0ACF80028C0F27F81206809
:1018E40001F0A6F810F4006F09D0BB6813F0010FE3
:1018F40040F08C812268536903F4006353612068CB
:1019040001F096F810F0006F15D02268536903F0C7
:101914000063536194F8F434002B40F07B8101217F
:1019240084F8F41423685B6DC3F38303C4F8F834B8
:101934002046FFF791FB206801F07AF810F4805FED
:1019440040F06C81206801F073F810F4005F40F0FF
:10195400B981206801F06CF810F0080F40F0CA81DA
:10196400206801F065F810F0800F00F0DD81AB69AC
:1019740023F08003AB610126C6E147F6F07318EA51
:10198400030F93D04FEA181A4FEAC903019309EBE6
:10199400C90B04EB8B0BC8F30A12DBF88C12284634
:1019A40000F09CFFDBF88C32CAF30A0A5344CBF8EC
:1019B4008C32DBF89C32019A4A4404EB8202534491
:1019C400C2F89C3272E7082204F2C441284600F0AF
:1019D40085FF09EBC90304EB8303D3F89C22C8F306
:1019E4000A184244C3F89C2260E7206801F024F8F6
:1019F4008046B14635E005EB49130122C3F8082BB4
:101A040049462046FFF7DCFC3CE005EB491308227D
:101A1400C3F8082B49462046FFF754FD35E009EB8F
:101A2400C90304EB830393F87F32012B41D005EB08
:101A340049130222C3F8082B1AF0200F04D005EB37
:101A440049132022C3F8082B1AF4005F05D005EBD4
:101A540049134FF40052C3F8082B09F101094FEA66
:101A64005808B8F1000F3FF42DAF18F0010FF4D06F
:101A74005FFA89FB5946206800F0EEFF824610F0B9
:101A8400010FB8D11AF0080FBFD11AF0100F04D00B
:101A940005EB49131022C3F8082B1AF0020FCBD020
:101AA4006B6913F0800FBAD07B6843F480637B606A
:101AB400B5E709EBC90304EB8303002283F87F2213
:101AC40059462046FFF75EFAB1E7206800F0BCFFF4
:101AD4008046B14625E059462046FFF711FA1AF030
:101AE400080F04D005EB49130822C3F808291AF09B
:101AF400100F04D005EB49131022C3F808291AF07B
:101B0400400F04D005EB49134022C3F808291AF00A
:101B1400020F40D11AF0800F5BD109F101094FEA9D
:101B24005808B8F1000F3FF4D4AE18F0010FF4D008
:101B34005FFA89FB5946206800F097FF824610F04F
:101B4400010FCCD009F00F02012101FA02F27B6BE4
:101B540023EA02037B6305EB4913C3F808192369DD
:101B64008B42B8D109EBC90304EB8303DA6C996C9B
:101B74000A44DA64B9F1000FADD109EBC90304EBEF
:101B840083035B6D002BA6D104F2C44201212068BB
:101B940000F0C2FF9FE74946284600F095FA09EB9A
:101BA400C90304EB830393F83F30012B05D005EB05
:101BB40049130222C3F80829ACE709EBC90304EB73
:101BC4008303002283F83F2059462046FFF7E0F9BB
:101BD400EDE749462046FFF7CBFA9EE77B6823F002
:101BE40001037B6094F8F434012B08D02046FFF7FE
:101BF400C3F92268536903F0004353616FE600217F
:101C040084F8F4142046FFF727FAF2E72046FFF79A
:101C14009BF96FE62046FFF797F98CE67B6823F083
:101C240001037B601021206800F04EFA1AE005EBF6
:101C340046134FF67F31C3F80819D3F8002922F46C
:101C44000012C3F80029C3F8081BD3F8002B22F4B0
:101C54000012C3F8002BD3F8002B42F00062C3F843
:101C6400002B01366368B342E1D8FB6943F00113EA
:101C7400FB61236BDBB1D7F8843043F00B03C7F867
:101C840084307B6C43F00B037B64D5F8003823F479
:101C9400FE63C5F8003804F2C442217C206800F0D9
:101CA4003BFF2268536903F4805353614AE67B691E
:101CB40043F4005343F02B037B613B6943F00B0374
:101CC4003B61E2E7206800F017FF206800F016FB94
:101CD400E060266801F06EF80146227B304600F091
:101CE40075F92046FFF71DF92268536903F4005380
:101CF40053612EE62046FFF70EF92268536903F07C
:101D0400080353612CE601366368B3420CD906EB31
:101D1400C60304EB830393F87F32012BF3D1F1B2B2
:101D24002046FFF76FFDEEE7206800F081FE10F417
:101D3400801F27D1206800F07BFE10F4001F5BD0C9
:101D4400012328E001366368B3421DD905EB46132D
:101D5400D3F8002906EBC60304EB830393F8403061
:101D6400012BEFD1002AEDDA06EBC60304EB830363
:101D7400012283F83F2066F07F01C9B22046FFF7B5
:101D840041FDDFE70126DEE72268536903F480138F
:101D94005361CFE7013362689A4228D905EB4312B5
:101DA400D2F8001B03EBC30204EB820292F88022F8
:101DB400012AEFD10029EDDA01F48031D4F8FC24B2
:101DC40002F001029142E5D103EBC30204EB82026B
:101DD400012182F87F12AA6942F08002AA616A692D
:101DE40012F0800FD6D17B6843F400737B602268C5
:101DF400536903F400135361206800F019FE10F0D6
:101E0400804F10D1206800F013FE10F0040F3FF44F
:101E14001CAD23685D6815F0040F0DD1226853686A
:101E24002B43536011E52046FFF7B8F82268536945
:101E340003F080435361E5E72046FFF7B5F8EDE78B
:101E440090F8BC34012B14D010B50446012380F85B
:101E5400BC3411F0800F06D1006800F05DF9002059
:101E640084F8BC0410BD01F00F01006800F02CF9E7
:101E7400F5E70220704710B40468606A31B940EA9B
:101E84000240A06200205DF8044B70478C46A36AB0
:101E940000EB1340002308E003F1400104EB81014F
:101EA400496800EB11400133DBB20CF1FF318B4286
:101EB400F2D340EA02400CF13F0104EB810460607C
:101EC400E0E7036859620020704703460268012175
:101ED400C0F80015002083F8F404936943F000630C
:101EE4009361536D43F0805343F00303536570478C
:101EF40082B000230193019B01330193019A0F4B9C
:101F04009A4215D80369002BF5DA0023019303697B
:101F140043F001030361019B01330193019A074BD1
:101F24009A4208D8036913F0010FF4D1002000E0AD
:101F3400032002B070470320FBE700BF400D0300FD
:101F440084B010B5044603A880E80E00089B012B5A
:101F54001FD1A36B23F48033A363E36823F48403C6
:101F640023F04003E360E36823F44013E3600F9B32
:101F7400012B09D02046FFF7BBFF069B012B1BD08A
:101F8400BDE8104004B07047E36843F48013E36095
:101F9400F0E7E36843F04003E3602046FFF7A8FF5F
:101FA4000C9B23B9A36B43F48033A363E5E7A36BD2
:101FB40023F48033A363E0E7A36843F00603A3603C
:101FC400A36843F02003A360DAE70000022A0AD0E2
:101FD4000922C36823F47053C360C36843EA8223AD
:101FE400C36000207047234B0B44234A93422FD9EC
:101FF400224B0B44224A93422CD9A1F57403A3F536
:102004001053204A934227D9A1F18373A3F5E743E0
:102014001D4A934222D31D4B0B441D4A93421FD9A0
:102024001C4B0B441C4A93421CD31C4B0B441C4AB0
:10203400934219D3A1F1B773A3F55853194A9342A4
:1020440014D3194B0B44194A934211D20722C0E707
:102054000F22BEE70E22BCE70D22BAE70C22B8E736
:102064000B22B6E70A22B4E70922B2E70822B0E756
:102074000622AEE7405327FFFF340C00401E1BFF2F
:102084003F420F007F4F120020D6130060B6E5FEDA
:102094005FE3160000D3CEFE40771B00C05BB3FEA7
:1020A400C091210020753800E05459FEE09C4100A5
:1020B400836843F00103836000207047836823F042
:1020C400010383600020704782B000230193019BC9
:1020D40001330193019A0F4B9A4215D80369002BDF
:1020E400F5DA00230193890141F020010161019B8C
:1020F40001330193019A074B9A4208D8036913F0FC
:10210400200FF4D1002000E0032002B07047032028
:10211400FBE700BF400D030082B000230193019B45
:1021240001330193019A0E4B9A4213D80369002B91
:10213400F5DA0023019310230361019B013301931A
:10214400019A074B9A4208D8036913F0100FF4D18F
:10215400002000E0032002B070470320FBE700BF2B
:10216400400D0300D0F800381943C0F800180020CF
:102174007047000084B02DE9F041044607A880E8C8
:102184000E00002306E003F1400204EB820200216A
:10219400516001330E2BF6D9119F27BBD4F80438B4
:1021A40043F00203C4F80438A36B23F40013A363BD
:1021B400236843F040032360236843F080032360D3
:1021C4000023C4F8003E04F50065D4F80038C4F8D0
:1021D40000380C9B012B10D1099B4BB900212046E0
:1021E400FFF7C0FF0DE0A36B43F40013A363E7E71D
:1021F40001212046FFF7B6FF03E003212046FFF745
:10220400B1FF10212046FFF75FFF804608B14FF071
:1022140001082046FFF780FF08B14FF001080023B2
:102224002B616B61EB610AE0C3B94FF00060C2F847
:10223400000900220A614FF67F328A600133079950
:10224400994210D904EB431202F51061D2F8000947
:102254000028E9DB0020C2F80009EAE74FF09040CB
:10226400C2F80009E5E700230AE0C3B14FF0904C3F
:10227400C2F800CB002202614FF67F328260013344
:10228400994211D904EB431202F53060D2F8006B85
:10229400002EEADB4FF0000CC2F800CBEAE74FF067
:1022A400006CC2F800CBE5E72B6923F480732B6143
:1022B4000023A3616FF0804363610A9B1BB9A36988
:1022C40043F01003A361A2690B4B1343A3610D9B5D
:1022D4001BB1A36943F00803A361012F04D0404656
:1022E400BDE8F04104B07047A36943F0804343F074
:1022F4000403A361F3E700BF00383C80D0F808383A
:1023040013F0060307D0022B07D0062B01D00F20B1
:10231400704702207047002070470220704710B5B4
:1023240091F800C04B78012B23D000F5006ED0F853
:102334001C380CF00F040122A24043EA0243C0F807
:102344001C3800EB4C10D0F8003B13F4004F0ED1B6
:10235400D0F8003BCA68C2F30A02097942EA814212
:10236400134343F0805343F40043C0F8003B002080
:1023740010BDD0F81C280CF00F0E03FA0EF39BB21C
:102384001343C0F81C3800EB4C10D0F8003913F498
:10239400004FECD1D0F80039CA68C2F30A020979B7
:1023A40042EA814242EA8C52134343F0805343F49D
:1023B4000043C0F80039DAE730B40B784A78012AD0
:1023C40026D000EB4313D3F8002B002A52DBD0F8BD
:1023D4003C480A7802F00F024FF0010C0CFA02F2AA
:1023E40024EA0242C0F83C28D0F81C28097801F0FD
:1023F4000F010CFA01FC22EA0C42C0F81C28D3F8A5
:10240400001B234A0A40C3F8002B002030BC70474D
:1024140000EB4313D3F80029002A1EDBD0F83C5804
:102424000A7802F00F02012404FA02F292B225EAB9
:102434000202C0F83C28D0F81C28097801F00F01EA
:102444008C40A4B222EA0402C0F81C28D3F8001974
:10245400104A0A40C3F80029D7E7D3F8002942F00C
:102464000062C3F80029D3F8002942F08042C3F87F
:102474000029D3E7D3F8002B42F00062C3F8002B05
:10248400D3F8002B42F08042C3F8002B9FE700BF33
:102494000078F3EF007833EC70B40B784C78012CAF
:1024A40029D000EB431000F530631C69E40CE4040C
:1024B4001C611C6924F0FF5424F4C0141C618C6951
:1024C4000CB1CC688C61CC68CC611C6944F40024E8
:1024D4001C611C69CD69C5F3120C44EA0C041C612F
:1024E400012A66D0D0F8003B43F00443C0F8003B17
:1024F400002070BC70478C696CBB00EB4314D4F8AB
:10250400105925F0FF5525F4C015C4F81059D4F816
:10251400105945F40025C4F81059D4F81059ED0C9D
:10252400ED04C4F81059012A34D000EB4313D3F856
:10253400002942F00442C3F800298B69002BD7D04C
:10254400D0F83438097801F00F0101228A4013438E
:10255400C0F83438CCE700EB431404F51064256963
:10256400ED0CED042561256925F0FF5525F4C01512
:102574002561CD688E69AE4200D98D61256945F427
:102584000025256125698E69C6F3120C45EA0C0500
:102594002561C8E74A691AB100EB4311C1F814294F
:1025A40000EB4313D3F8002942F00442C3F8002996
:1025B4009EE70A69002A95D05A6193E710B483B064
:1025C400024600230193487801280BD00B7802EBD4
:1025D4004313D3F8000B00282DDB002003B05DF873
:1025E400044B70470B7802EB4313D3F80049002CDB
:1025F40001DB0020F2E7D3F8004944F00064C3F89B
:1026040000490B7802EB4313D3F8004944F08044AB
:10261400C3F80049019B01330193019C42F21073FA
:102624009C42DBD80B7802EB4313D3F80039002B20
:10263400F0DB0020D2E7D3F8000B40F00060C3F8D1
:10264400000B0B7802EB4313D3F8000B40F08040EF
:10265400C3F8000B019B01330193019842F21073FC
:10266400984208D80B7802EB4313D3F8003B002BB5
:10267400F0DB0020B2E70120B0E710B59DF8084078
:1026840084B903334FEA930E4FF0000C08E000EBDB
:10269400023303F5805351F8044B1C600CF1010C18
:1026A400F445F4D3002010BDF0B583B00B784C781A
:1026B400012C33D000EB431303F5306CDCF81040ED
:1026C400E40CE404CCF81040DCF8104024F0FF548F
:1026D40024F4C014CCF810408C69002C40F0C7805E
:1026E400DCF81040CD68C5F312052C43CCF810403B
:1026F400DCF8104044F40024CCF81040012A00F027
:10270400D0800A79012A00F0D380D3F8002B42F05C
:102714000442C3F8002B002003B0F0BD8C6984BBD5
:1027240000EB4314D4F8105925F0FF5525F4C015D7
:10273400C4F81059D4F8105945F40025C4F81059B8
:10274400D4F81059ED0CED04C4F81059012A4CD0FA
:1027540000EB4313D3F8004944F00444C3F80049A0
:102764000C79012C6AD08B69002BD4D0D0F8343882
:10277400097801F00F0101228A401343C0F834386C
:10278400C9E700EB4314D4F81059ED0CED04C4F878
:102794001059D4F8105925F0FF5525F4C015C4F884
:1027A4001059D4F810698D69CF683D44013DB5FBDB
:1027B400F7F5494F07EAC5453543C4F81059D4F82D
:1027C40010598E69C6F312063543C4F8105904F53E
:1027D40010640D79012DB9D1256925F0C045256115
:1027E400256945F000552561B0E74A691AB100EB47
:1027F4004314C4F814290A79012A08D000EB4313BE
:10280400D3F8002942F00442C3F8002983E7D0F842
:10281400082812F4807F08D100EB4311D1F8002975
:1028240042F00052C1F80029E8E700EB4311D1F867
:10283400002942F08052C1F80029DFE7D0F80848A7
:1028440014F4807F0CD1D3F8004944F00054C3F849
:10285400004900920B8B0A780969FFF70EFF5AE7CB
:10286400D3F8004944F08054C3F80049F1E7CD6837
:102874002C44013CB4FBF5F4A4B204FB05F5CD6192
:10288400DCF81050144E06EAC4442C43CCF8104033
:10289400DCF81040CD69C5F312052C43CCF8104088
:1028A4002CE70A69002A3FF42CAFCCF8142028E75F
:1028B400D0F8082812F4807F06D1D3F8002B42F018
:1028C4000052C3F8002B20E7D3F8002B42F08052CB
:1028D400C3F8002B19E700BF0000F81F10B58446A9
:1028E40008464FEA920E02F00302002305E00CF5BD
:1028F4008051096840F8041B01337345F7D37AB15A
:102904000CF5805CDCF800400021CBB2DB0024FA3B
:1029140003F300F8013B0131013A92B2002AF4D1E9
:1029240010BD0B784A78012A14D000EB4310D0F87C
:10293400002B002A06DB2BB1D0F8003B23F08043A8
:10294400C0F8003BD0F8003B43F40013C0F8003B50
:102954000020704700EB4310D0F80029002A06DB62
:102964002BB1D0F8003923F08043C0F80039D0F8F7
:10297400003943F40013C0F80039E9E70B784A78CA
:10298400012A0ED000EB4310D0F8003B23F40013CF
:10299400C0F8003B0B79023BDBB2012B15D90020B8
:1029A400704700EB4310D0F8003923F40013C0F84B
:1029B40000390B79023BDBB2012BF0D8D0F8003997
:1029C40043F08053C0F80039E9E7D0F8003B43F006
:1029D4008053C0F8003BE2E7D0F8003823F4FE63EC
:1029E400C0F80038D0F80038090101F4FE610B4347
:1029F400C0F8003800207047D0F8003E23F00303ED
:102A0400C0F8003ED0F8043823F00203C0F80438BC
:102A140000207047D0F8003E23F00303C0F8003EC6
:102A2400D0F8043843F00203C0F80438002070479B
:102A34004269806910407047D0F8183800F500608A
:102A4400C0691840000C7047D0F8183800F50060D1
:102A5400C069184080B2704700EB4111D1F8082BCF
:102A640000F50060406910407047D0F81028D0F895
:102A7400343801F00F0C23FA0CF3DB01DBB21343FF
:102A840000EB411000F51060806818407047406901
:102A940000F00100704738B50546C36823F0C04311
:102AA400C360012913D019BBC36843F08043C360DA
:102AB4000024012001F074F801342846FFF7E7FFF1
:102AC40008B1312CF5D9322C14D0002038BDC3689C
:102AD40043F00053C3600024012001F061F8013485
:102AE4002846FFF7D4FF0128EDD0312CF4D9EAE7CA
:102AF4000120EBE70120E9E7D0F8003923F4FF6374
:102B040023F00703C0F80039D0F8043843F4807385
:102B1400C0F804380020704710B4046C154B9C4274
:102B240003D9D0F8003B002B16DB0024C0F8104B6F
:102B3400D0F8104B44F40024C0F8104BD0F8104BDC
:102B440044F01804C0F8104BD0F8104B44F0C044C3
:102B5400C0F8104B012903D000205DF8044B7047E6
:102B6400C0F8142BD0F8003B43F08023C0F8003B9E
:102B7400F2E700BF0A30544F08B5334B9B6803F0AB
:102B84000C03042B5BD0082B5BD12F4B5A6802F04B
:102B94003F025B6813F4800F2CD02B4B5868C0F3B2
:102BA40088104FEA401CBCEB000C6EEB0E0E4FEA93
:102BB4008E1343EA9C634FEA8C11B1EB0C0163EB77
:102BC4000E03DB0043EA5173C90011EB000C43F11F
:102BD4000003590200234FEA4C2041EADC51FDF77F
:102BE400EFFA194B5B68C3F3014301335B00B0FB9D
:102BF400F3F027E0144B5868C0F388104FEA401CE8
:102C0400BCEB000C6EEB0E0E4FEA8E1343EA9C6392
:102C14004FEA8C11B1EB0C0163EB0E03DB0043EACA
:102C24005173C90011EB000C43F100039902002316
:102C34004FEA8C2041EA9C51FDF7C2FAD1E70348E0
:102C440000E0034808BD00BF0038024000127A00CB
:102C54000024F400002800F09B8070B50D46044663
:102C64004F4B1B6803F007038B4208D2CBB24C4A8C
:102C74001370136803F007038B4240F08B802368C2
:102C840013F0020F17D013F0040F04D0454A9368D1
:102C940043F4E0539360236813F0080F04D0414ACF
:102CA400936843F4604393603E4A936823F0F003CF
:102CB400A1680B439360236813F0010F32D063685B
:102CC400012B21D09A1E012A25D9364A126812F006
:102CD400020F61D033498A6822F0030213438B60E8
:102CE40000F058FF06462F4B9B6803F00C03626804
:102CF400B3EB820F16D000F04DFF801B41F28833F6
:102D04009842F0D9032042E0264A126812F4003FA8
:102D1400E0D101203BE0234A126812F0007FD9D1B0
:102D2400012034E01E4B1B6803F00703AB4207D9B4
:102D3400EAB21B4B1A701B6803F00703AB422DD198
:102D4400236813F0040F06D0164A936823F4E05363
:102D5400E1680B439360236813F0080F07D0114A0E
:102D6400936823F46043216943EAC1039360FFF746
:102D740003FF0C4B9B68C3F303130B4AD35CD8408B
:102D84000A4B18600A4B186800F0B8FE002070BDAA
:102D9400012070470120FAE70120F8E70120F6E757
:102DA400003C024000380240F0690008A000002006
:102DB4009C000020014B1868704700BFA000002051
:102DC40008B5FFF7F7FF044B9B68C3F38223034A5C
:102DD400D35CD84008BD00BF00380240E869000851
:102DE40008B5FFF7E7FF044B9B68C3F34233034A7C
:102DF400D35CD84008BD00BF00380240E869000831
:102E040070B582B00446056815F001050CD0A64AD9
:102E1400D2F88C3023F0C06341690B43C2F88C3084
:102E24004369002B6ED00025236813F0020F0BD0EA
:102E34009D4AD2F88C3023F0C053A1690B43C2F8E9
:102E44008C30A36903B90125236813F0080F5BD103
:102E5400236813F0040F04D094F83820934BC3F87C
:102E6400E021236813F0100F08D08F4AD2F8943071
:102E740023F44003616A0B43C2F89430236813F0CF
:102E8400200F0DD0884AD2F8943023F00063A16A51
:102E94000B43C2F89430A36AB3F1006F00F09D8035
:102EA400236813F0400F08D07F4AD2F8943023F0FF
:102EB4008053216A0B43C2F89430002D40F08F8078
:102EC4002368802B00F08B80236813F4807F08D064
:102ED400754AD2F88C3023F00043E16A0B43C2F800
:102EE4008C30236813F4007F00F0DB806E4AD2F844
:102EF4008C3023F40043216B0B43C2F88C30002048
:102F040002B070BD01258FE700230193664B1A6C54
:102F140042F080521A641B6C03F080530193019BAE
:102F2400634A136843F48073136000F033FE06466B
:102F34005F4B1B6813F4807F06D100F02BFE801BCF
:102F44000228F5D90320DBE7574B1B6F13F44073BA
:102F540014D0E26902F440729A420FD0524B1A6FB5
:102F640022F4407253490120C1F8400E0020C1F8F8
:102F7400400E1A671B6F13F0010F12D1E36903F4BB
:102F84004072B2F5407F1DD0474A936823F4F8138A
:102F9400936045490B6FE269C2F30B0213430B675D
:102FA40056E700F0F7FD06463F4B1B6F13F0020F88
:102FB400E4D100F0EFFD801B41F288339842F3D94D
:102FC40003209DE738498A6822F4F81223F07043FD
:102FD40023F4407313438B60DBE7012560E7354B33
:102FE40000229A6600F0D6FD05462F4B1B6813F0AD
:102FF400006F06D000F0CEFD401B0228F5D9032057
:103004007EE7626B294BC3F8D820236813F0010FC5
:1030140001D06269A2B113F0020F01D0A2697AB1A2
:1030240013F0200F03D0A26AB2F1006F08D013F09E
:10303400400F12D0236A83B9A36AB3F1006F0CD195
:103044006368A26843EA8213E26843EA026322697E
:1030540043EA0273144AC2F88430236813F0800FE1
:103064000CD06368A26843EA8213E26843EA02630D
:10307400226943EA02730C4AC2F884300D4B0122E0
:103084009A6600F087FD0546074B1B6813F0006F36
:103094007FF41AAF00F07EFD401B0228F4D9032010
:1030A4002EE700202CE700BF003802400010474202
:1030B4000070004000004742002800F0E98170B52C
:1030C40082B00446036813F0010F3BD09F4B9B680A
:1030D40003F00C03042B2CD09C4B9B6803F00C03D3
:1030E400082B21D06368B3F5803F4FD0B3F5A02FF0
:1030F40052D0964B1A6822F480321A601A6822F46D
:1031040080221A606368002B50D000F043FD05460E
:103114008E4B1B6813F4003F14D100F03BFD401BA1
:103124006428F5D90320BAE1884B5B6813F4800F57
:10313400D8D0864B1B6813F4003F03D06368002B80
:1031440000F0A881236813F0020F54D07F4B9B68D2
:1031540013F00C0F3ED07D4B9B6803F00C03082B3F
:1031640033D0E368002B68D0794B01221A6000F059
:1031740011FD0546754B1B6813F0020F54D100F086
:1031840009FD401B0228F5D9032088E16F4A136822
:1031940043F480331360B5E76C4B1A6842F4802221
:1031A4001A601A6842F480321A60ABE700F0F2FC4D
:1031B4000546664B1B6813F4003FC3D000F0EAFCDD
:1031C400401B6428F5D9032069E1604B5B6813F464
:1031D400800FC6D15D4B1B6813F0020F03D0E36868
:1031E400012B40F05981594A136823F0F8032169EF
:1031F40043EAC1031360236813F0080F42D06369E4
:103204006BB3534B0122C3F8802E00F0C3FC054678
:103214004E4B5B6F13F0020F34D100F0BBFC401B2C
:103224000228F5D903203AE1484A136823F0F80349
:10323400216943EAC1031360DDE7454B00221A60AC
:1032440000F0A8FC0546414B1B6813F0020FD2D0D6
:1032540000F0A0FC401B0228F5D903201FE13C4BE1
:103264000022C3F8802E00F095FC0546374B5B6FB7
:1032740013F0020F06D000F08DFC401B0228F5D994
:1032840003200CE1236813F0040F77D02F4B1B6C41
:1032940013F0805F33D1002301932C4B1A6C42F05E
:1032A40080521A641B6C03F080530193019B012527
:1032B400284B1B6813F4807F23D0A368012B34D0E0
:1032C400052B38D0214B1A6F22F001021A671A6FAE
:1032D40022F004021A67A368002B3DD000F05AFCC8
:1032E40006461A4B1B6F13F0020F46D100F052FC36
:1032F400801B41F288339842F3D90320CFE00025A4
:10330400D6E7144A136843F48073136000F042FC58
:103314000646104B1B6813F4807FCED100F03AFCB4
:10332400801B0228F5D90320B9E0084A136F43F043
:1033340001031367CFE7054B1A6F42F004021A67C3
:103344001A6F42F001021A67C5E700BF0038024055
:10335400000047420070004000F01CFC0646584B39
:103364001B6F13F0020F08D000F014FC801B41F215
:1033740088339842F3D9032091E0EDB9A369002B77
:1033840000F08C804E4A926802F00C02082A54D055
:10339400022B17D04B4B00221A6600F0FBFB0446AD
:1033A400474B1B6813F0007F45D000F0F3FB001B74
:1033B4000228F5D9032072E0414A136C23F08053AC
:1033C4001364DBE73F4B00221A6600F0E3FB05467B
:1033D4003B4B1B6813F0007F06D000F0DBFB401B67
:1033E4000228F5D903205AE0E369226A1343626A8A
:1033F40043EA8213A26A5208013A43EA0243E26AA8
:1034040043EA0263226B43EA02732D4A53602D4B55
:1034140001221A6600F0BEFB0446294B1B6813F018
:10342400007F06D100F0B6FB001B0228F5D903206B
:1034340035E0002033E0002031E0012B31D0204B77
:103444005B6803F48001E26991422CD103F03F02EE
:10345400216A8A4229D1616A47F6C0721A40B2EBE6
:10346400811F24D103F44031A26A5208013AB1EB1E
:10347400024F1ED103F07062E16AB2EB016F1AD100
:1034840003F0E043226BB3EB027F16D1002006E089
:1034940001207047012002E0012000E0002002B07A
:1034A40070BD0120FBE70120F9E70120F7E70120C7
:1034B400F5E70120F3E70120F1E70120EFE700BF82
:1034C400003802400000474200230F2B00F2D18055
:1034D40070B582B065E085684FEA430E032404FAB0
:1034E4000EF425EA0405CC6804FA0EF42C43846037
:1034F400446824EA02044A68C2F300129A40224350
:1035040042605CE0DC08083450F8242003F007052E
:10351400AD004FF00F0E0EFA05FE22EA0E0E0A69F8
:10352400AA4042EA0E0240F824205CE0032200E0B4
:10353400002202FA0EF22A4302344E4D45F82420AA
:103544004D4A94686FEA0C0224EA0C054E6816F49E
:10355400801F01D04CEA0405474CA560E46802EAE8
:1035640004054E6816F4001F01D04CEA0405424CD1
:10357400E560646802EA04054E6816F4003F01D071
:103584004CEA04053C4C6560246822404D6815F4FF
:10359400803F01D04CEA0402374C226001330F2BE8
:1035A40065D801229A400C6804EA020C32EA040449
:1035B400F4D14C6804F00304013C012C8BD94A6813
:1035C40002F00302032A09D0C4685D000322AA4062
:1035D40024EA02048A68AA402243C2604A6802F0CC
:1035E4000302022A8ED004684FEA430E032202FA31
:1035F4000EF224EA02044A6802F0030202FA0EF20E
:10360400224302604A6812F4403FC7D0002201926C
:103614001A4A546C44F480445464526C02F4804258
:103624000192019A9C08A51C124A52F8255003F0F5
:10363400030E4FEA8E0E0F2202FA0EF225EA02055D
:103644000F4A90423FF474AF02F5806290420AD070
:1036540002F58062904208D002F5806290423FF405
:1036640065AF072265E7012263E7022261E702B042
:1036740070BD704700380140003C014000380240F2
:10368400000002400AB181617047090481617047FA
:1036940010B40368D9B210390C4AA2FB01421209D2
:1036A4000B4CA25CC2655F2909D923F47F7323F014
:1036B400030304338365806D5DF8044B704723F482
:1036C4007F7323F003038365F5E700BFABAAAAAABF
:1036D400E0690008836A826992B9012B0AD0022B3F
:1036E40002D00BB100207047C36A13F0807F28D149
:1036F40000207047C36AB3F1C07F24D00020704714
:10370400B2F5005F09D0022B25D9032B25D1C36A5A
:1037140013F0807F23D100207047032B03D8DFE808
:1037240003F01404140A00207047C36A13F0807F66
:103734000DD100207047C36AB3F1C07F09D00020C7
:103744007047012070470120704701207047012015
:103754007047012070470120704700207047012006
:103764007047000070B5044600F014FA002C5BD0DA
:103774000546022384F83530002384F83430226867
:10378400136823F00103136023681A6812F0010F11
:103794000AD000F0FFF9431B052BF5D920236365FC
:1037A400032084F8350070BD1A682049114062680E
:1037B400A0680243E068024320690243606902434F
:1037C400A0690243E0690243206A02430A43616A32
:1037D40004291ED01A602668756925F00705636AF6
:1037E4001D43042B07D1A36A1D43E36A1BB1204682
:1037F400FFF770FF90B975612046FFF749FFE26D4E
:103804003F239340836000206065012384F83530B2
:10381400C9E7E16A206B01430A43DBE740236365A0
:10382400012084F83500BEE70120BCE73F8010F09A
:10383400F0B583B0044600230193724B1D68724BAC
:10384400A3FB0535AD0A876D3E68C26D082393401E
:10385400334210D003681A6812F0040F0BD01A68B0
:1038640022F004021A60C26D08239340BB60436DCA
:1038740043F001034365E26D01239340334209D0D1
:103884002268526912F0800F04D0BB60636D43F06C
:1038940002036365E26D04239340334209D0226836
:1038A400126812F0020F04D0BB60636D43F004038E
:1038B4006365E26D10239340334224D0226812687A
:1038C40012F0080F1FD0BB6023681A6812F4802F0F
:1038D4000DD01B6813F4002F04D1236C9BB1204638
:1038E400984710E0A36C73B1204698470BE01A6820
:1038F40012F4807F03D11A6822F008021A60236C44
:103904000BB120469847E26D20239340334255D0B3
:103914002268126812F0100F50D0BB6094F8353052
:10392400DBB2052B0ED023681A6812F4802F33D033
:103934001B6813F4002F2AD1636C002B3ED0204661
:1039440098473BE02268136823F01603136022684B
:10395400536923F080035361236CA3B12268136875
:1039640023F008031360E26D3F239340BB600123FF
:1039740084F83530002384F83430236D002B3FD095
:10398400204698473CE0A36C002BE7D1EBE7E36BC0
:10399400A3B12046984711E01A6812F4807F09D138
:1039A4001A6822F010021A60012384F835300023CB
:1039B40084F83430E36B0BB120469847636DFBB158
:1039C400636D13F0010F17D0052384F83530226896
:1039D400136823F001031360019B01330193AB428D
:1039E40004D823681B6813F0010FF5D1012384F870
:1039F4003530002384F83430E36C0BB1204698470B
:103A040003B0F0BDA0000020B5814E1B002808DBE8
:103A14000901C9B200F1604000F5614080F800136B
:103A2400704700F00F000901C9B2014B19547047E7
:103A340014ED00E000B500F00700C0F1070CBCF184
:103A4400040F28BF4FF0040C031D062B0FD9C31E0F
:103A54004FF0FF3E0EFA0CF021EA000199400EFAF5
:103A640003FE22EA0E0241EA02005DF804FB002391
:103A7400EEE70000074AD36823F4E0631B041B0C41
:103A8400000200F4E060034343F0BF6343F40033F7
:103A9400D360704700ED00E010B50446054BD868CC
:103AA400C0F30220FFF7C6FF01462046FFF7AEFF32
:103AB40010BD00BF00ED00E0002807DB00F01F028E
:103AC400400901239340024A42F82030704700BF66
:103AD40000E100E00138B0F1807F0BD24FF0E02329
:103AE4005861054AF02182F82310002098610722CA
:103AF4001A6170470120704700ED00E010B50446DC
:103B04000E4B1A784FF47A73B3FBF2F30C4A106835
:103B1400B0FBF3F0FFF7DEFF68B90F2C01D90120E9
:103B24000AE0002221464FF0FF30FFF7B5FF054BB6
:103B34001C60002000E0012010BD00BF98000020A0
:103B4400A00000209C00002008B50B4B1A6842F42A
:103B540000721A601A6842F480621A601A6842F4A9
:103B640080721A600320FFF785FF0F20FFF7C6FF5E
:103B7400FCF712FE002008BD003C0240034A116815
:103B8400034B1B780B441360704700BF7C1000206C
:103B940098000020014B1868704700BF7C1000207B
:103BA40038B50446FFF7F6FF0546B4F1FF3F02D0EF
:103BB400044B1B781C44FFF7EDFF401BA042FAD3D3
:103BC40038BD00BF980000204A4B5A6822F44032A6
:103BD4005A605A6841680A435A600268536823F479
:103BE4008073536002685368016943EA0123536098
:103BF4000268536823F04073536002685368816815
:103C04000B4353600268936823F400639360026873
:103C14009368C1680B439360826A374B9A4257D0CA
:103C24000268936823F07063936002689368816A02
:103C34000B4393600268936823F0405393600268D7
:103C44009368C16A0B4393600268936823F002038C
:103C5400936002689368017E43EA4103936090F89D
:103C64002030002B3FD00268536843F40063536054
:103C74000268536823F46043536001684B68426AE6
:103C8400013A43EA42334B600268D36A23F4700377
:103C9400D3620168CB6AC269013A43EA0253CB6238
:103CA4000268936823F4007393600268936890F841
:103CB400301043EA412393600268936823F48063DD
:103CC400936002689368416943EA81239360704773
:103CD4000268936823F0706393600268936823F02A
:103CE40040539360B0E70268536823F40063536061
:103CF400CAE700BF002301400100000F38B310B52C
:103D04000446036C43B1236C13F0100F0BD0012055
:103D1400002384F83C3010BDFCF75AFD0023636493
:103D240084F83C30EFE7236C23F4885323F0020338
:103D340043F0020323642046FFF746FF002060643B
:103D4400236C23F0030343F001032364E0E7012021
:103D54007047000030B482B00022019290F83C20F9
:103D6400012A00F0B6800346012280F83C200A684C
:103D7400092A40D90468E06892B202EB42021E3A72
:103D84004FF0070C0CFA02F220EA0202E2601C680F
:103D9400E0680A8802EB42021E3A8D6805FA02F2D4
:103DA4000243E2604A68062A3CD81C68606B02EB56
:103DB4008202053A4FF01F0C0CFA02F220EA0202CA
:103DC40062631C68606B4A6802EB8202053AB1F8D0
:103DD40000C00CFA02F20243626318683E4A904241
:103DE40050D018683C4A904255D0002083F83C00DB
:103DF40002B030BC70470468206992B202EB420200
:103E04004FF0070C0CFA02F220EA020222611C684D
:103E140020690A8802EB42028D6805FA02F2024325
:103E24002261BFE70C2A16D81D68286B02EB8202B8
:103E3400233A1F2404FA02F220EA02022A631D68CC
:103E4400286B4A6802EB8202233A0C8804FA02F2D5
:103E540002432A63C1E71D68E86A02EB8202413A21
:103E64001F2404FA02F220EA0202EA621D68E86AE8
:103E74004A6802EB8202413A0C8804FA02F20243D5
:103E8400EA62AAE70A68122AABD11448426842F4EB
:103E940080024260A5E70A68103A012AA5D80F48B3
:103EA400426842F4000242600A68102A9DD10C4A1A
:103EB40012680C49A1FB0212920C02EB820252001E
:103EC400019202E0019A013A0192019A002AF9D181
:103ED4008BE702208CE700BF002001400023014053
:103EE400A000002083DE1B43002800F0A18038B529
:103EF400044690F82030D3B12268136843F00103DC
:103F04001360FFF747FE054623685A6812F0010F55
:103F140010D1FFF73FFE401B0A28F5D9636A43F42A
:103F240000336362052384F82030012038BDFCF798
:103F3400ABFCE1E71A6822F002021A60FFF72AFEDE
:103F4400054623685A6812F0020F0DD0FFF722FECF
:103F5400401B0A28F5D9636A43F4003363620523DE
:103F640084F820300120E1E7227E012A3DD01A683E
:103F740022F080021A60637E012B3BD02268136812
:103F840023F040031360A37E012B39D02268136809
:103F940023F020031360E37E012B37D022681368DB
:103FA40043F010031360237F012B35D0226813687C
:103FB40023F008031360637F012B33D02268136856
:103FC40023F004031360A368E268134322691343D4
:103FD400626913436268013A21681343CB6100208C
:103FE4006062012384F82030A0E71A6842F080025E
:103FF4001A60C0E72268136843F040031360C2E705
:104004002268136843F020031360C4E7226813682E
:1040140023F010031360C6E72268136843F0080313
:104024001360C8E72268136843F004031360CAE707
:1040340001207047002800F0CC8070B5044690F849
:104044003D30002B77D0242384F83D302268136858
:1040540023F0010313602268136843F400431360E0
:104064002268136823F400431360FEF7A9FE626814
:104074005A4B9A4264D85A4B98428CBF002301236E
:10408400002B40F0A8805749A1FB00318B0C256818
:104094006A6822F03F0242EA91426A6021680A6A31
:1040A40022F03F0266684D4DAE424FD801331343B0
:1040B4000B622168CA6922F44F4222F0FF0265684C
:1040C400464B9D424CD8431E6D00B3FBF5F30133C0
:1040D40040F6FC70034278D0C3F30B031A43CA6161
:1040E40021680B6823F0C003E269206A024313438A
:1040F4000B6021688B6823F4034323F0FF032269D8
:10410400E068024313438B602168CB6823F0FF030C
:104114006269A06902431343CB602268136843F0C9
:104124000103136000202064202384F83D302063C1
:1041340084F83E0070BD80F83C30FCF725FC82E733
:10414400294B98428CBF0023012399E74FF49675BD
:1041540005FB03F3254DA5FB03539B090133A6E798
:10416400A668BEB9431E05EB450CB3FBFCF3013353
:10417400C3F30B03B3FA83F35B0943BBC6B9431E12
:1041840005EB4505B3FBF5F30133C3F30B0343F42C
:104194000043A3E7431E05EB850C0CEB8C0CB3FB2F
:1041A400FCF30133C3F30B03B3FA83F35B09E4E7D2
:1041B400431E05EB850505EB8505B3FBF5F30133DC
:1041C400C3F30B0343F4404388E7042386E7012346
:1041D40084E7012070470120ACE700BFA0860100FE
:1041E4007F841E0083DE1B43FF083D00D34D621015
:1041F40038B504460268D36823F0A003D360FFF700
:10420400C9FC05462368DB6813F0200F07D1FFF7CC
:10421400C1FC401BB0F57A7FF4D9032000E00020F4
:1042240038BD70B50368DA6812F0400F02D000257B
:10423400284670BD0446DA6842F08002DA60FFF76F
:10424400A9FC064600252368DB6813F0400FEFD174
:10425400002DEDD1FFF79EFC831BB3F57A7FF2D9D5
:10426400042363770125EEE70268D36823F0800313
:10427400D36003689B6813F0200F01D000207047BF
:1042840010B50446FFF7B4FF10B10423637701208F
:1042940010BD002842D010B50446437F7BB10223F1
:1042A40063772368CA225A62236853225A622046DB
:1042B400FFF7B7FF38B12368FF225A6210BD0377B6
:1042C400FCF7ACFBEBE72268936823F4E00323F0EC
:1042D4004003936021688A686368206903436069C6
:1042E400034313438B602368E2681A6122681369ED
:1042F400A16843EA014313612046FFF7B5FF002894
:10430400D9D12268136C23F4802313642268136CBC
:10431400A1690B43136401236377CCE70120704741
:10432400002303E00133DBB20A38C0B20928F9D80C
:104334001B01DBB218437047037F012B5AD070B5C1
:1043440004460E46012303770223437732BB0368F6
:104354009B6813F0400F01D10023CB703078FFF736
:10436400DFFF05047078FFF7DBFF45EA0025B0782E
:10437400FFF7D6FF0543F37845EA83552368CA223D
:104384005A62236853225A622046FFF74AFFB8B1A3
:104394002368FF225A620023237770BD03689B6859
:1043A40013F0400F01D10023CB70337875782D02C0
:1043B40045EA0345B3781D43F37845EA8355DDE7C1
:1043C400236805F07F3525F0FE451D60226893685B
:1043D40023F48023936021688B68F2683069024378
:1043E40013438B602046FFF73FFF0028D0D1012301
:1043F4006377CDE702207047037F012B48D070B567
:1044040004460E460123037702234377CAB1CB78CF
:104414004D782D0245EA03458B781D430B7845EA18
:1044240043352368CA225A62236853225A622046BB
:10443400FFF7F7FEF0B12368FF225A6200232377C7
:1044440070BD4B7813F0100F03D003F0EF030A3361
:104454004B70F078FFF764FF05047078FFF760FF96
:1044640045EA0025B078FFF75BFF0543337845EA5A
:104474004335D6E7236825F07F4525F0C0055D6008
:104484002046FFF7F1FE0028D5D101236377D2E758
:104494000220704700285AD010B50446436A33B945
:1044A4004368B3F5827F05D00023C36102E0002393
:1044B400036143610023A36294F85130002B40D080
:1044C400022384F851302268136823F040031360F8
:1044D400636803F48273A26802F404421343E2683B
:1044E40002F400621343226902F002021343626978
:1044F40002F001021343A26902F400721343E26959
:1045040002F038021343226A02F080021343A26AC3
:1045140002F40052216813430B60638B03F004031D
:10452400626A02F01002216813434B602268D36967
:1045340023F40063D36100206065012384F85130C3
:1045440010BD84F850302046FCF78CFAB8E70120FF
:104554007047000010B504460268136923F4405301
:10456400C1680B431361836802691A4343691A43A0
:10457400C3691A430168CB6823F4164323F00C0380
:104584001343CB600268536923F4407381690B437E
:1045940053610368314A934206D002F58062934224
:1045A40002D0FEF70DFC01E0FEF71AFCE369B3F557
:1045B400004F29D00021031849411B1841F1000183
:1045C400C90041EA5371DB00181863684FEA83029B
:1045D4004FEA937341F10001FBF7F2FD204AA2FB7D
:1045E40000314909642303FB11031B013233A2FB8D
:1045F40003235B0903F0F00202EB011203F00F0343
:10460400216813448B6010BD0023021843EB03019F
:10461400121841F10001C90041EA5271D200101888
:1046240041F10001626892185B41FBF7C9FD0C4A35
:10463400A2FB00314909642303FB1103DB0032337D
:10464400A2FB03235B095A0002F4F87202EB011285
:1046540003F00703216813448B60D4E70010014082
:104664001F85EB5158B310B5044690F83D300BB399
:10467400242384F83D302268D36823F40053D360A4
:104684002046FFF767FF2268136923F49043136100
:104694002268536923F02A0353612268D36843F4E0
:1046A4000053D36000202064202384F83D3084F834
:1046B4003E3010BD80F83C30FCF756FAD8E70120B4
:1046C400704700283BD038B50D46044690F83D307D
:1046D400002B2FD0242384F83D302268D36823F4A0
:1046E4000053D3602046FFF735FF2268136923F493
:1046F400006313612268536923F02A03536122681B
:10470400136943F4804313612268136923F020037F
:104714001361226813692B4313612268D36843F43D
:104724000053D36000202064202384F83D3084F8B3
:104734003E3038BD80F83C30FCF716FACAE7012059
:1047440070470000034AD2F8883043F47003C2F87B
:104754008830704700ED00E0134B5B7A13BB10B553
:10476400044603F0FF00104B93F809C05FFA8CFC79
:104774004FF0000E03F80CE093F809C003EB8C0C27
:10478400CCF804405C7A1C4422725A7A541CE4B279
:104794005C7230320A703A234B702F238B7081F88D
:1047A40003E010BD012070478010002008B50022EE
:1047B400FFF7D2FF08BD98B108B503460020C3F83F
:1047C400B802C3F8C402C3F8D00209B1C3F8B412E2
:1047D400012183F89C121A701846FCF7EBFB08BD04
:1047E4000320704710B582B00023ADF8063089B1BC
:1047F4000446C0F8B812CB6A23B10DF106009847FD
:10480400C4F8D002D4F8D8320133C4F8D832002026
:1048140002B010BD0320FBE708B5FCF75EFC08BD41
:1048240008B5D0F8B83213B11B68984708BD00200A
:10483400FCE708B5D0F8B8325B68984700B908BD02
:104844000320FCE738B5044600F2AA25284600F008
:10485400C4F90123C4F89432B4F8B032C4F89832DD
:1048640094F8AA1201F01F03012B0DD0022B10D0D3
:104874002BB101F080012046FCF752FC03E02946ED
:10488400204600F091FB38BD2946204600F0C7FBC6
:10489400F9E72946204600F004FCF4E7F8B504469D
:1048A400012380F89C320023C0F894324360C0F89E
:1048B400A43280F8A032D0F8B832DBB15B68DBB147
:1048C400002198470746C8B94023002211462046D4
:1048D400FCF70BFC0126A4F864614025C4F8605180
:1048E4002B46002280212046FCF7FFFBA68425628C
:1048F4003846F8BD0027E7E70027E5E70327E3E7A5
:1049040001740020704790F89C32DBB280F89D322D
:10491400042380F89C320020704790F89C32DBB26C
:10492400042B01D00020704790F89D32DBB280F850
:104934009C32F7E708B590F89C32DBB2032B01D028
:10494400002008BDD0F8B832002BF9D0DB69002B69
:10495400F6D09847F4E708B5D0F8D432AE3350F81F
:1049640023205AB190F89C32DBB2032B01D00020F3
:1049740008BD136A23B198470020F9E70320F7E73D
:104984000020F5E708B5D0F8D432AE3350F8232030
:104994005AB190F89C32DBB2032B01D0002008BD41
:1049A400536A23B198470020F9E70320F7E7002072
:1049B400F5E70020704708B5012380F89C32D0F851
:1049C400B83223B15B680179984710B908BD00205B
:1049D400FCE70320FAE7002070470020704738B551
:1049E40004460D46002943D11346D0F89422032AE5
:1049F40001D0084638BDD0F85C11D0F8602191424E
:104A040012D890F8AA3203F01F03012B17D0022BFF
:104A14001CD0284694F89C32DBB2032B1BD02046D2
:104A240000F091FC2846E5E7891AC0F85C118A4237
:104A340028BF0A46194600F07EFC2846DAE790F8BB
:104A4400AE12FFF7C8FF0028E9D1E3E790F8AE12F1
:104A5400FFF7C3FFF7E700F1AE0354F823301A69F8
:104A6400002ADCD0C4F8D4021B6920469847D6E754
:104A740001F07F01FFF7B1FF90B994F89C32DBB2EB
:104A8400032BB7D100F1AE0354F823309A69002AFE
:104A9400B0D0C4F8D4029B69294620469847A9E7B8
:104AA4000020A7E738B504460D4600294BD113462C
:104AB400D0F89422022A07D094F8A00218B1002357
:104AC40084F8A032284638BDC269016A8A420ED8E9
:104AD4008A4218D094F89C32DBB2032B27D0802171
:104AE4002046FCF71DFB204600F038FCE4E7521A90
:104AF400C261194600F017FC00231A4619462046E5
:104B0400FCF72EFBD8E783699942E3D8D0F89822C2
:104B14009342DFD20022114600F005FC0021C4F8C4
:104B240098120B460A462046FCF71AFBC4E7D4F851
:104B3400B832DA68002AD2D00022C4F8D422DB6862
:104B440020469847CBE741F08001FFF746FF90B934
:104B540094F89C32DBB2032BB5D100F1AE0354F8C8
:104B640023305A69002AAED0C4F8D4025B692946BE
:104B740020469847A7E70020A5E70B88027813444E
:104B84000B80037818447047428803789A4218D9F6
:104B940030B583B004460D46ADF806306388BDF8E1
:104BA40006209A420AD20DF10601FFF7E6FF437888
:104BB400052BF3D18378AB42F0D100E0002003B0A1
:104BC40030BD002070470346002002E00130C0B22F
:104BD40001331A78002AF9D170470B7803704B78A7
:104BE40043708B78CA7843EA022343800B794A796D
:104BF40043EA022383808B79CA7943EA0223C38080
:104C0400704710B504468021FCF78AFA002120463B
:104C1400FCF786FA10BD30B583B004460D46002378
:104C2400ADF806304A88130A013B0E2B00F2BC8013
:104C3400DFE803F0153044BABA9EABBABABABABACE
:104C4400BABA0800D0F8B432DB6923B10DF1060119
:104C5400007C98470AE02946FFF7D3FF18E0D0F814
:104C6400B4321B680DF10601007C9847EA88002ADB
:104C740000F0A380BDF80630002B00F099809A4222
:104C840028BF1A46ADF806200146204600F03EFB38
:104C940003B030BD037C43B9D0F8B8329B6A0DF140
:104CA4000600984702234370E0E7D0F8B832DB6A85
:104CB4000DF10600984702234370D7E7D2B2052AC4
:104CC40052D8DFE802F003101D2A3744D0F8B4327A
:104CD4005B6823B10DF10601007C9847C6E72946BD
:104CE400FFF78FFFD4E7D0F8B4329B6823B10DF1FE
:104CF4000601007C9847B9E72946FFF782FFC7E71A
:104D0400D0F8B432DB6823B10DF10601007C98477A
:104D1400ACE72946FFF775FFBAE7D0F8B4321B6950
:104D240023B10DF10601007C98479FE72946FFF760
:104D340068FFADE7D0F8B4325B6923B10DF1060129
:104D4400007C984792E72946FFF75BFFA0E7D0F87D
:104D5400B4329B6923B10DF10601007C984785E7C5
:104D64002946FFF74EFF93E72946FFF74AFF8FE7EF
:104D7400037C33B9D0F8B8325B6B0DF10600984769
:104D840074E72946FFF73DFF82E7037C43B9D0F877
:104D9400B8321B6B0DF1060098470723437065E793
:104DA4002946FFF72EFF73E72946FFF72AFF6FE72F
:104DB40029462046FFF725FF6AE7204600F0C3FA9C
:104DC40066E738B504468B88FBB9CB88EBB94B88CA
:104DD4007F2B1AD803F07F0590F89C32DBB2032BAB
:104DE4000CD080F89E522946FCF7AAF9204600F020
:104DF400AAFA35B1022384F89C3209E0FFF701FFD7
:104E040006E0012384F89C3202E02046FFF7F9FE15
:104E140038BD000070B504460E468D782F4B1D70CA
:104E2400012D10D890F89C32DBB2022B0FD0032B4B
:104E340026D0FFF7E6FE294B19782046FFF7F9FC48
:104E44000325284670BDFFF7DCFE0325F9E7A5B16D
:104E540045602946FFF7E4FC054638B13146204653
:104E6400FFF7CFFE022384F89C32EAE7204600F0E5
:104E74006AFA032384F89C32E3E700F064FAE0E77B
:104E8400CDB141688D4225D0C9B2FFF7D2FC134B96
:104E9400197861602046FFF7C3FC0546B0B131467E
:104EA4002046FFF7AEFE21792046FFF7C2FC02231D
:104EB40084F89C32C5E7022380F89C324560294679
:104EC400FFF7B7FC204600F03EFABAE7204600F0B0
:104ED4003AFAB6E700F037FA0025B2E78C10002062
:104EE40008B5CB88012B0BD190F89C32DBB2022B96
:104EF40009D9032B09D10122011D00F007FA01E0B1
:104F0400FFF77FFE08BD5BB213B9FFF77AFEF9E73E
:104F14000146002341F8083F012200F0F7F9F1E7C8
:104F240008B590F89C32013B022B12D8CB88022B97
:104F34000CD10123C360D0F8A4320BB10323C360A6
:104F4400022200F10C0100F0E1F908BDFFF759FE5F
:104F5400FBE7FFF756FEF8E708B54B88012B04D0B2
:104F6400022B07D0FFF74DFE08BDC0F8A43200F0B5
:104F7400EAF9F9E78B881B0A80F8A03200F0E3F91C
:104F8400F2E708B590F89C32013B022B09D84B8814
:104F9400012B00D008BD0023C0F8A43200F0D3F9DF
:104FA400F8E7FFF72EFEF5E738B50C7804F0600457
:104FB400202C06D0402C04D06CB1FFF722FE002434
:104FC40007E0D0F8D432AE3350F823309B689847CA
:104FD4000446204638BD4D78092D1DD8DFE805F07C
:104FE40012191C161C08051C0F0BFFF714FEF0E722
:104FF400FFF7E7FEEDE7FFF70DFF0446E9E7FFF7EC
:105004006FFFE6E7FFF78CFF2C46E2E7FFF7A4FF0C
:10501400DFE7FFF7B6FFDCE7FFF7F3FDD9E770B58D
:1050240005460C460B7803F06003202B07D0402B79
:1050340005D023B1FFF7E5FD0026304670BD95F895
:105044009C32013B022B26D82179012905D921461E
:105054002846FFF7D6FD0026EFE72846FFF7BBFCFE
:1050640068B900F1AE0255F82220916889B1C5F8FB
:10507400D4029368214628469847064600E0032652
:10508400E388002BD9D1002ED7D1284600F05BF954
:10509400D3E70326F4E721462846FFF7B2FD0026AE
:1050A400CBE72DE9F04106460D468B88DFB20C783C
:1050B40004F06004202C08D0402C06D0DCB1FFF7AB
:1050C400A0FD00242046BDE8F08139463046FFF7B4
:1050D40084FC0446002840F0F880C6F8D40200F1AD
:1050E400AE0356F823309B68002BEBD0294630469C
:1050F40098470446E6E791F80180B8F1010F31D0F2
:10510400B8F1030F05D0B8F1000F67D0FFF779FDB0
:10511400D8E790F89C32DBB2022B04D0032B12D0D8
:10512400FFF76FFDCEE70FB1802F04D1294630463B
:10513400FFF767FDC6E73946FBF7F2FF80213046EB
:10514400FBF7EEFFBEE74B8823B91FB1802F01D0D8
:10515400CB881BB1304600F0F6F8B3E73946FBF7CD
:10516400DFFFF7E790F89C32DBB2022B04D0032B6D
:1051740012D0FFF746FDA5E70FB1802F04D12946D1
:105184003046FFF73EFD9DE73946FBF7C9FF802116
:105194003046FBF7C5FF95E74B88002B92D117F0FB
:1051A4007F0F17D1304600F0CEF839463046FFF76E
:1051B40014FC002886D1C6F8D40200F1AE0256F8D9
:1051C40022209268002A00F08280294630469047C7
:1051D400044677E73946FBF7ABFFE3E790F89C22F8
:1051E400D2B2022A05D0032A27D0FFF70AFD44468B
:1051F40068E70FB1802F13D113F0800F14D107F09B
:105204007F0707EB8707B90001F5A8713144043122
:1052140000230B600222304600F078F8444651E740
:10522400FFF7EFFC44464DE707F07F0707EB8707DE
:10523400B900103131440431EAE75BB2002B1FDBC3
:1052440007F00F0202EB820200EB8202B2F8642143
:105254001AB3002B25DB07F07F0303EB83039C00C9
:1052640004F5A874344404340FB1802F22D10023F0
:10527400236002222146304600F048F8444621E7E4
:1052840007F00F0202EB820200EB8202928C002AEA
:10529400DFD1FFF7B6FC444614E7FFF7B2FC4446FF
:1052A40010E707F07F0303EB83039C0010343444BE
:1052B4000434D9E739463046FBF7B0FE10B1012378
:1052C4002360D6E700232360D3E70024FAE60446EC
:1052D400F8E6D0B170B50D4616460446FFF773FCE8
:1052E400431C5B009BB233802B7003236B7002233F
:1052F40007E0EA5401345A1CD2B20021A954023303
:10530400DBB22278002AF4D170BD704708B5134689
:105314000222C0F894228361C3610A460021FBF78C
:1053240017FF002008BD08B513460A460021FBF705
:105334000FFF002008BD08B513460A460021FBF7FD
:105344000FFF002008BD08B50422C0F894220023F2
:105354001A461946FBF7FCFE002008BD08B50522D5
:10536400C0F8942200231A461946FBF7F9FE0020E0
:1053740008BD00000A23038000487047A8000020ED
:1053840070B504464FF41D70FBF798FE78B3D4F85B
:10539400D432B03344F82300C4F8BC02237C73BB7A
:1053A400274D4FF40073022229782046FBF79DFE17
:1053B4002B7803F00F0303EB830304EB8303012532
:1053C400A3F864511F4E4FF4007302223178204633
:1053D400FBF78BFE337803F00F0303EB830304EB3B
:1053E40083039D84204600F0C3F9002070BDD4F8E7
:1053F400D432B033002244F823200220F6E7104DC3
:105404004023022229782046FBF76FFE2B7803F015
:105414000F0303EB830304EB83030125A3F8645117
:10542400084E4023022231782046FBF75EFE337893
:1054340003F00F0303EB830304EB83039D84D1E7A1
:10544400A4000020A500002070B50446194D297859
:10545400FBF756FE2B7803F00F0303EB830304EBF7
:1054640083030025A3F86451134E31782046FBF7DB
:1054740047FE337803F00F0303EB830304EB83034A
:105484009D84D4F8D432B03354F8233083B1204609
:1054940000F0C0F9D4F8D432B03354F82300FBF749
:1054A40011FED4F8D432B03344F82350C4F8BC52BB
:1054B400002070BDA4000020A50000202DE9F041CB
:1054C40082B0D0F8D42202F1B00350F82370002344
:1054D400ADF80630002F00F0918004460D460B789D
:1054E40013F0600639D0202E40F081804978FE29DF
:1054F40006D0FF2920D02946FFF783FB032679E055
:10550400698811B9E988012905D029462046FFF7A1
:1055140078FB03266EE013F0800FF6D0B03200EB78
:10552400820253689B6998473860012239462046B5
:10553400FFF7ECFE00265DE06A8842B9EA8832B9DA
:1055440013F0800F03D100F043F9002652E02946FE
:105554002046FFF756FB03264CE091F80180B8F192
:105564000B0F40D8DFE808F006303F3F3F3F3F3F96
:105574003F3F162490F89C32DBB2032B03D0FFF795
:1055840040FB032636E002220DF10601FFF7BEFEC2
:1055940046462FE090F89C32DBB2032B03D0FFF792
:1055A40030FB032626E00122391DFFF7AFFE21E080
:1055B40090F89C32DBB2032B02D18B787B6019E02C
:1055C400FFF71FFB032615E090F89C32DBB2032B98
:1055D40010D14B8873B90979FBF79AFD29792046D4
:1055E40000F0E4F906E0FFF70CFB032602E0FFF706
:1055F40008FB0326304602B0BDE8F0810326F9E734
:1056040008B500F037F9002008BD08B500F0B0F97E
:10561400002008BD70B505460B4E81213046FFF7CA
:10562400B3FA044601213046FFF7AEFA1CB100225A
:1056340022710222627118B10022027102224271A7
:1056440020232B80004870BDB400002070B50546AF
:105654000B4E81213046FFF797FA0446012130466C
:10566400FFF792FA1CB1402222710022627118B134
:10567400402202710022427120232B80004870BD19
:10568400B400002070B505460B4E81213046FFF76B
:105694007BFA044601213046FFF776FA1CB140221A
:1056A40022710022627118B14022027100224271FB
:1056B40020232B80004870BDB400002039B1D0F8FD
:1056C400D432B03300EB83004160002070470320E4
:1056D4007047000038B5D0F8D442B03450F82440B4
:1056E400A4B11346D4F81852D4F83822D21AC4F804
:1056F4003822002284F83C2204222272AB4228BFC2
:105704002B460A4602490978FBF722FD38BD00BF43
:10571400A500002038B5D0F8D432B03350F8235067
:1057240085B1044695F81C3223B9D5F818320BB16B
:105734006B7A43B10C4B19782046FBF7F1FC6B7A7A
:10574400022B05D038BD094B1978FBF7E9FCF1E7CA
:10575400054B19782046FBF7E3FC044B19782046E7
:10576400FBF7DEFCEEE700BFA5000020A40000204C
:1057740070B5D0F8D432B03350F8235015B3044682
:1057840000202872687285F8610285F8600285F845
:105794006202D4F8D432B03304EB83035B681B6831
:1057A4009847094E31782046FBF7B2FC074B19782D
:1057B4002046FBF7ADFC1F2305F504723178204623
:1057C400FBF7CEFC70BD00BFA4000020A5000020A4
:1057D40070B5D0F8D432B03350F82350A5B1044694
:1057E40000232B7201236B72084B1978FBF7A0FC82
:1057F400074E31782046FBF79BFC1F2305F5047206
:1058040031782046FBF7ACFC70BD00BFA50000203A
:10581400A4000020D0F8D432B03350F823300BB1B8
:1058240000221A727047000038B5D0F8D432B03371
:1058340050F82350B5B104460B4BC5F8303285F807
:105844003C1200232B720D2305F50C7207490978CD
:10585400FBF77EFC1F2305F50472054909782046F1
:10586400FBF77EFC38BD00BF55534253A500002012
:10587400A4000020D0F8D432B03350F82310D1B1B2
:1058840010B504460B7A022B08D006D3033BDBB2D7
:10589400012B02D80021FFF7C7FF10BD01F21F2220
:1058A40091F81D1200F029FE0028F6DA01212046A5
:1058B400FFF7BAFFF1E7704738B5D0F8D432B03308
:1058C40050F82350FDB10446D5F81432C5F83432EB
:1058D400D5F81832C5F83832234B1978FBF7B5FBE5
:1058E4001F2804D1D5F81022204B9A420CD0202333
:1058F400052295F81D12204600F0CEF802236B72A3
:105904002046FFF707FF38BD95F81D120129EED890
:1059140095F81E32002BEAD0102BE8D805F21F228E
:10592400204600F0EAFD00280CDB2B7A013BDBB2B9
:10593400022BE8D9EA688AB105F110012046FFF785
:10594400C9FEE0E72B7A052B03D02046FFF7E2FEE1
:10595400D9E701212046FFF767FFD4E7002120465D
:10596400FFF762FFCFE700BFA40000205553424376
:10597400D0F8D432B03350F82330B3B110B5044664
:105984001A7A12B1012A03D010BDFFF795FFFBE785
:1059940003F21F2293F81D1200F0AFFD0028F3DA82
:1059A40001212046FFF740FFEEE77047D0F8D432DC
:1059B400B03350F82330BBB110B504465B7A022BE8
:1059C40008D011F0800F04D0012B02D00121FFF781
:1059D4002BFF10BD054B1978FBF7A2FB044B19787C
:1059E4002046FBF79DFBF4E7704700BFA5000020AD
:1059F400A4000020D0F8D432B03350F8233053B18F
:105A0400127922B983F862220020D86070470122FB
:105A140083F86222F8E74FF0FF307047844658B1AC
:105A2400C26005E0013A92B2885C0CEB0203187480
:105A3400002AF7D1002070474FF0FF307047000074
:105A440008B5D0F8D432B03350F8230040B11279FD
:105A5400172A00D917220449FFF7E0FF002008BDE8
:105A64004FF0FF30FBE700BF2801002008B5D0F855
:105A7400D432B03350F8230040B1127A1B2A00D933
:105A84001B220449FFF7CAFF002008BD4FF0FF3076
:105A9400FBE700BF0C010020D0F8D412B03150F85D
:105AA400210080B190F8611201F1480C00F83C200B
:105AB40000EBCC021371002353714B1CDBB280F852
:105AC4006132042B00D07047002380F86132FAE77A
